:020000040800F2
:100000000050002001130008251200082B120008E0
:1000100031120008371200083D12000800000000ED
:100020000000000000000000000000004312000873
:100030004F120008000000005B1200086712000861
:100040004913000849130008491300084913000820
:100050004913000849130008491300084913000810
:100060004913000849130008491300084913000800
:1000700049130008491300084913000849130008F0
:1000800049130008491300084913000849130008E0
:1000900049130008491300084913000849130008D0
:1000A00049130008491300084913000849130008C0
:1000B00049130008491300084913000849130008B0
:1000C00049130008491300084913000849130008A0
:1000D0004913000875120008491300084913000865
:1000E00049130008491300084913000800000000E4
:1000F0000000000000000000000000000000000000
:0C01000000000000000000005FF808F1A3
:1001100010B5054C237833B9044B13B10448AFF341
:1001200000800123237010BDE001002000000000CA
:10013000484C000808B5034B1BB103490348AFF313
:10014000008008BD00000000E4010020484C0008C9
:10015000034613F8012B002AFBD1181A0138704707
:1001600081F0004102E000BF83F0004330B54FEA68
:1001700041044FEA430594EA050F08BF90EA020FD5
:100180001FBF54EA000C55EA020C7FEA645C7FEA68
:10019000655C00F0E2804FEA5454D4EB5555B8BF8B
:1001A0006D420CDD2C4480EA020281EA030382EAFC
:1001B000000083EA010180EA020281EA0303362D8E
:1001C00088BF30BD11F0004F4FEA01314FF4801C61
:1001D0004CEA113102D0404261EB410113F0004F73
:1001E0004FEA03334CEA133302D0524263EB43032A
:1001F00094EA050F00F0A780A4F10104D5F1200EC8
:100200000DDB02FA0EFC22FA05F2801841F1000122
:1002100003FA0EF2801843FA05F359410EE0A5F1F6
:1002200020050EF1200E012A03FA0EFC28BF4CF027
:10023000020C43FA05F3C01851EBE37101F00045DD
:1002400007D54FF0000EDCF1000C7EEB00006EEBEA
:100250000101B1F5801F1BD3B1F5001F0CD3490874
:100260005FEA30004FEA3C0C04F101044FEA4452CB
:1002700012F5800F80F09A80BCF1004F08BF5FEA52
:10028000500C50F1000041EB045141EA050130BD32
:100290005FEA4C0C404141EB010111F4801FA4F1D5
:1002A0000104E9D191F0000F04BF01460020B1FA2A
:1002B00081F308BF2033A3F10B03B3F120020CDA62
:1002C0000C3208DD02F1140CC2F10C0201FA0CF040
:1002D00021FA02F10CE002F11402D8BFC2F1200CA5
:1002E00001FA02F120FA0CFCDCBF41EA0C0190405B
:1002F000E41AA2BF01EB0451294330BD6FEA0404A4
:100300001F3C1CDA0C340EDC04F11404C4F120028E
:1003100020FA04F001FA02F340EA030021FA04F3A0
:1003200045EA030130BDC4F10C04C4F1200220FAF7
:1003300002F001FA04F340EA0300294630BD21FA35
:1003400004F0294630BD94F0000F83F4801306BFFB
:1003500081F480110134013D4EE77FEA645C18BFEF
:100360007FEA655C29D094EA050F08BF90EA020F86
:1003700005D054EA000C04BF1946104630BD91EA7E
:10038000030F1EBF0021002030BD5FEA545C05D181
:100390004000494128BF41F0004130BD14F58004C0
:1003A0003CBF01F5801130BD01F0004545F0FE4134
:1003B00041F470014FF0000030BD7FEA645C1ABF69
:1003C000194610467FEA655C1CBF0B46024650EAA0
:1003D000013406BF52EA033591EA030F41F40021CC
:1003E00030BD00BF90F0000F04BF0021704730B552
:1003F0004FF4806404F132044FF000054FF0000127
:1004000050E700BF90F0000F04BF0021704730B5E7
:100410004FF4806404F1320410F0004548BF4042BC
:100420004FF000013EE700BF42004FEAE2014FEA11
:1004300031014FEA02701FBF12F07F4393F07F4FEC
:1004400081F06051704732F07F4208BF704793F0EF
:100450007F4F04BF41F40021704730B54FF4607402
:1004600001F0004521F000411CE700BF50EA010205
:1004700008BF704730B54FF000050AE050EA0102AE
:1004800008BF704730B511F0004502D5404261EB1E
:1004900041014FF4806404F132045FEA915C3FF45F
:1004A000D8AE4FF003025FEADC0C18BF03325FEAFC
:1004B000DC0C18BF033202EBDC02C2F1200300FAAD
:1004C00003FC20FA02F001FA03FE40EA0E0021FAD2
:1004D00002F11444BDE600BF70B54FF0FF0C4CF4C0
:1004E000E06C1CEA11541DBF1CEA135594EA0C0F72
:1004F00095EA0C0F00F0DEF82C4481EA030621EAAD
:100500004C5123EA4C5350EA013518BF52EA0335E7
:1005100041F4801143F4801338D0A0FB02CE4FF099
:100520000005E1FB02E506F00042E0FB03E54FF0C9
:100530000006E1FB03569CF0000F18BF4EF0010EC1
:10054000A4F1FF04B6F5007F64F5407404D25FEABD
:100550004E0E6D4146EB060642EAC62141EA555170
:100560004FEAC52040EA5E504FEACE2EB4F1FD0CB2
:1005700088BFBCF5E06F1ED8BEF1004F08BF5FEA30
:10058000500E50F1000041EB045170BD06F00046E2
:1005900046EA010140EA020081EA0301B4EB5C048F
:1005A000C2BFD4EB0C0541EA045170BD41F4801187
:1005B0004FF0000E013C00F3AB8014F1360FDEBFAC
:1005C000002001F0004170BDC4F10004203C35DA88
:1005D0000C341BDC04F11404C4F1200500FA05F30B
:1005E00020FA04F001FA05F240EA020001F00042AC
:1005F00021F0004110EBD37021FA04F642EB060122
:100600005EEA430E08BF20EAD37070BDC4F10C044B
:10061000C4F1200500FA04F320FA05F001FA04F20F
:1006200040EA020001F0004110EBD37041F10001FB
:100630005EEA430E08BF20EAD37070BDC4F1200506
:1006400000FA05F24EEA020E20FA04F301FA05F26E
:1006500043EA020321FA04F001F0004121FA04F216
:1006600020EA020000EBD3705EEA430E08BF20EAE6
:10067000D37070BD94F0000F0FD101F00046400020
:1006800041EB010111F4801F08BF013CF7D041EAA2
:10069000060195F0000F18BF704703F000465200A6
:1006A00043EB030313F4801F08BF013DF7D043EA77
:1006B0000603704794EA0C0F0CEA135518BF95EA2D
:1006C0000C0F0CD050EA410618BF52EA4306D1D1B4
:1006D00081EA030101F000414FF0000070BD50EAD3
:1006E000410606BF1046194652EA430619D094EA5D
:1006F0000C0F02D150EA013613D195EA0C0F05D147
:1007000052EA03361CBF104619460AD181EA03019A
:1007100001F0004141F0FE4141F470014FF0000052
:1007200070BD41F0FE4141F4780170BD70B54FF0ED
:10073000FF0C4CF4E06C1CEA11541DBF1CEA13556D
:1007400094EA0C0F95EA0C0F00F0A7F8A4EB05044F
:1007500081EA030E52EA03354FEA013100F0888046
:100760004FEA03334FF0805545EA131343EA12630F
:100770004FEA022245EA111545EA10654FEA0026C4
:100780000EF000419D4208BF964244F1FD0404F57D
:10079000407402D25B084FEA3202B61A65EB0305D9
:1007A0005B084FEA32024FF480104FF4002CB6EB96
:1007B000020E75EB030E22BFB61A754640EA0C0016
:1007C0005B084FEA3202B6EB020E75EB030E22BF56
:1007D000B61A754640EA5C005B084FEA3202B6EB97
:1007E000020E75EB030E22BFB61A754640EA9C0056
:1007F0005B084FEA3202B6EB020E75EB030E22BF26
:10080000B61A754640EADC0055EA060E18D04FEAE3
:10081000051545EA16754FEA06164FEAC30343EA83
:1008200052734FEAC2025FEA1C1CC0D111F4801F50
:100830000BD141EA00014FF000004FF0004CB6E749
:1008400011F4801F04BF01430020B4F1FD0C88BFE8
:10085000BCF5E06F3FF6AFAEB5EB030C04BFB6EBF3
:10086000020C5FEA500C50F1000041EB045170BDE6
:100870000EF0004E4EEA113114EB5C04C2BFD4EB13
:100880000C0541EA045170BD41F480114FF0000E97
:10089000013C90E645EA060E8DE60CEA135594EA13
:1008A0000C0F08BF95EA0C0F3FF43BAF94EA0C0F16
:1008B0000AD150EA01347FF434AF95EA0C0F7FF48B
:1008C00025AF104619462CE795EA0C0F06D152EADF
:1008D00003353FF4FDAE1046194622E750EA4106C3
:1008E00018BF52EA43067FF4C5AE50EA41047FF4D4
:1008F0000DAF52EA43057FF4EBAE12E74FF0FF3C39
:1009000006E000BF4FF0010C02E000BF4FF0010C09
:100910004DF804CD4FEA410C7FEA6C5C4FEA430C82
:1009200018BF7FEA6C5C1BD001B050EA410C0CBFD1
:1009300052EA430C91EA030F02BF90EA020F002033
:10094000704710F1000F91EA030F58BF994208BF9A
:1009500090422CBFD8176FEAE37040F00100704757
:100960004FEA410C7FEA6C5C02D150EA013C07D1AE
:100970004FEA430C7FEA6C5CD6D152EA033CD3D0F9
:100980005DF8040B704700BF8446104662468C46F3
:100990001946634600E000BF01B5FFF7B7FF002826
:1009A00048BF10F1000F01BD4DF808EDFFF7F4FF4F
:1009B0000CBF012000205DF808FB00BF4DF808EDDA
:1009C000FFF7EAFF34BF012000205DF808FB00BFFD
:1009D0004DF808EDFFF7E0FF94BF012000205DF81F
:1009E00008FB00BF4DF808EDFFF7CEFF94BF0120D4
:1009F00000205DF808FB00BF4DF808EDFFF7C4FFCD
:100A000034BF012000205DF808FB00BF4FEA41021F
:100A100012F5001215D211D56FF47873B3EB625250
:100A200012D94FEAC12343F0004343EA505311F077
:100A3000004F23FA02F018BF404270474FF0000009
:100A4000704750EA013005D111F0004008BF6FF047
:100A5000004070474FF00000704700BF4A0011D2BD
:100A600012F5001211D20DD56FF47873B3EB625208
:100A70000ED44FEAC12343F0004343EA505323FA14
:100A800002F070474FF00000704750EA013002D189
:100A90004FF0FF3070474FF0000070474FEA4102BF
:100AA000B2F1E04324BFB3F5001CDCF1FE5C0DD9CC
:100AB00001F0004C4FEAC0024CEA5070B2F1004F16
:100AC00040EB830008BF20F00100704711F0804F19
:100AD00021D113F13872BCBF01F00040704741F4DE
:100AE00080114FEA5252C2F11802C2F1200C10FAE2
:100AF0000CF320FA02F018BF40F001004FEAC123C6
:100B00004FEAD32303FA0CFC40EA0C0023FA02F369
:100B10004FEA4303CCE77FEA625307D150EA01333F
:100B20001EBF4FF0FE4040F44000704701F000400F
:100B300040F0FE4040F40000704700BF80B485B034
:100B400000AF78600023FB6016E0FB6803F500331C
:100B500001339B027A689A420BD2FB6803F500339B
:100B60009B027A689A4204D3FB6803F500339B0228
:100B700006E0FB680133FB60FB687F2BE5DD0023AB
:100B800018461437BD4680BC704780B487B000AFAC
:100B900078600023FB750CE0FB7D7A681A44FB7DCE
:100BA000127807F118010B4403F80C2CFB7D01337C
:100BB000FB75FB7D032BEFD9FB683B613B69184656
:100BC0001C37BD4680BC704790B58BB000AFF86055
:100BD000B9601346FB8000237B6200F047FEF86893
:100BE000FFF7ACFF3862FB889B001A46FB68134492
:100BF000FB61F869FFF7A2FFB861204B00221A6081
:100C00001E4A3B6A9360BA693B6AD31A9B0A013356
:100C10001A4AD36007F114031946184800F018FF68
:100C20000346002B1ED000F057FE034621E07B6AEE
:100C30009B00BA6813441B684FF000041A46234611
:100C4000F968022000F0A2FD0346002B06D1FB68E4
:100C50000433FB607B6A01337B6203E000F03CFEFF
:100C6000034606E0FB887A6A9A42E0DB00F024FE45
:100C7000002318462C37BD4690BD00BFFC01002064
:100C800080B485B000AFF860B9601346FB80FB68A4
:100C90001A68BB681A60FB680433FB60BB680433E6
:100CA000BB60FB885A1EFA80002B00D0EFE700BF24
:100CB00000BF1437BD4680BC704780B584B000AF1C
:100CC000786007F10803012219467868FFF7D8FF1A
:100CD00007F108031846FFF758FFF860FB6818464D
:100CE0001037BD4680BD000080B500AF00F02EFB80
:100CF00000F03AF800F0A8F800F07CF81B22114947
:100D0000114801F042FD114B1846FFF7D6FF02468D
:100D10000F4B1A600F4B1846FFF7CFFF02460E4BE2
:100D20001A600E4B1846FFF7C8FF02460C4B1A60BC
:100D30000C4B00221A700B4B1B78002BFBD000F0E1
:100D4000CFF8F8E70C0200203C02002010F8010860
:100D50003802002014F801088402002018F8010865
:100D6000800200202802002080B590B000AF07F17B
:100D7000180328220021184602F046F93B1D0022E4
:100D80001A605A609A60DA601A610123BB614FF4FD
:100D90008033FB6100233B620123BB6202237B6340
:100DA0004FF48033BB634FF48013FB6307F11803E8
:100DB000184601F081F80346002B01D000F0A8F995
:100DC0000F237B600223BB600023FB604FF4806332
:100DD0003B6100237B613B1D0121184601F0ECFAC9
:100DE0000346002B01D000F093F900BF4037BD4609
:100DF00080BD000080B500AF114B124A1A60104B45
:100E00004FF4E1325A600E4B00229A600C4B0022E4
:100E1000DA600B4B00221A61094B0C225A61084B15
:100E200000229A61064B0022DA61054801F060FC5D
:100E30000346002B01D000F06BF900BF80BD00BF5E
:100E40003C0200200038014080B588B000AF07F1B7
:100E5000100300221A605A609A60DA601E4B9B6988
:100E60001D4A43F0100393611B4B9B6903F0100371
:100E7000FB60FB68184B9B69174A43F020039361A2
:100E8000154B9B6903F02003BB60BB68124B9B6949
:100E9000114A43F0040393610F4B9B6903F0040371
:100EA0007B607B6800224FF400510C4800F0D2FFB9
:100EB0004FF400533B6101237B610023BB6102239C
:100EC000FB6107F110031946044800F069FE00BFFA
:100ED0002037BD4680BD00BF001002400010014019
:100EE00090B593B000AF724B1B7887F83F3000236A
:100EF0003B6307F1340300210A461A800A469A70C0
:100F00000023BB6207F12C0300210A461A800A461F
:100F10009A7000233B6207F1240300210A461A80DD
:100F20000A469A7002237B6400233B64614BBB63D7
:100F300002237B6417E05E4A7B6C13441A78BB6B18
:100F40001B789A4213D05A4A7B6C1344197807F1E4
:100F500020023B6C13440A461A703B6C01333B641D
:100F60007B6C01337B647B6C082BE4DD00E000BF0D
:100F700000233B640A237B6417E04D4A7B6C1344D7
:100F80001A78BB6B1B789A4213D0494A7B6C134486
:100F9000197807F130023B6C13440A461A703B6C17
:100FA00001333B647B6C01337B647B6C102BE4DD91
:100FB00000E000BF00233B6412237B6417E03C4A3F
:100FC0007B6C13441A78BB6B1B789A4213D0384A57
:100FD0007B6C1344197807F128023B6C13440A46D2
:100FE0001A703B6C01333B647B6C01337B647B6C1C
:100FF000192BE4DD00E000BF07F12003184601F0E3
:10100000D5FF03460C4618462146FFF747FD034629
:10101000FB6107F13003184601F0C8FF03460C4698
:1010200018462146FFF73AFD0346BB6107F1280346
:10103000184601F0BBFF03460C4618462146FFF751
:101040002DFD03467B61FB697B607B68BB60BB69F0
:101050007B607B68FB607B697B607B683B611648DB
:1010600007F1080303221946FFF7AEFD134B0022D8
:101070001A70114B1846FFF720FE0246104B1A60FB
:10108000104B1846FFF719FE02460F4B1A600F4B24
:101090001846FFF712FE02460D4B1A601B22044948
:1010A0000C4801F072FB00BF4C37BD4690BD00BF3D
:1010B0000C020020604C000810F8010828020020F3
:1010C0003802002014F801088402002018F80108F2
:1010D000800200203C02002080B582B000AF786022
:1010E0007B681B68074A934207D1074B01221A709D
:1010F0004FF40051054800F0C5FE00BF0837BD465B
:1011000080BD00BF003801402802002000100140CF
:1011100080B400AF72B6FEE780B485B000AF154B67
:101120009B69144A43F001039361124B9B6903F0DE
:101130000103BB60BB680F4BDB690E4A43F0805371
:10114000D3610C4BDB6903F080537B607B680A4BF7
:101150005B68FB60FB6823F0E063FB60FB6843F0C7
:101160000073FB60044AFB68536000BF1437BD4640
:1011700080BC7047001002400000014080B588B07C
:1011800000AF786007F1100300221A605A609A607D
:10119000DA607B681B68204A934239D11F4B9B69F8
:1011A0001E4A43F4804393611C4B9B6903F48043C4
:1011B000FB60FB68194B9B69184A43F00403936179
:1011C000164B9B6903F00403BB60BB684FF40073CC
:1011D0003B6102237B610323FB6107F11003194686
:1011E0000F4800F0DDFC4FF480633B6100237B611E
:1011F0000123BB6107F110031946094800F0D0FC38
:1012000000220021252000F0DAF9252000F0F3F972
:1012100000BF2037BD4680BD0038014000100240AD
:101220000008014080B400AFFEE780B400AFFEE7E5
:1012300080B400AFFEE780B400AFFEE780B400AF3B
:10124000FEE780B400AF00BFBD4680BC704780B4ED
:1012500000AF00BFBD4680BC704780B400AF00BF88
:10126000BD4680BC704780B500AF00F0B5F800BF48
:1012700080BD000080B500AF024801F0B7FA00BFA2
:1012800080BD00BF3C02002080B586B000AF786012
:10129000144A154BD31A7B617B693B61134B1B6866
:1012A000002B02D1114B124A1A60104B1A687B684E
:1012B00013443A699A4207D201F07CFE02460C239D
:1012C00013604FF0FF3309E0084B1B68FB60074BCE
:1012D0001A687B681344054A1360FB681846183780
:1012E000BD4680BD00500020000400002C020020FC
:1012F000B802002080B400AF00BFBD4680BC70477C
:101300000C480D490D4A002302E0D458C450043360
:10131000C4188C42F9D30A4A0A4C002301E0136036
:101320000432A242FBD3FFF7E5FF01F049FEFFF7CD
:10133000DBFC704700000020DC010020084F0008A3
:10134000E0010020B4020020FEE7000080B500AFFD
:10135000084B1B68074A43F010031360032000F09A
:1013600023F9002000F008F8FFF7D6FE0023184606
:1013700080BD00BF0020024080B582B000AF786021
:10138000124B1A68124B1B7819464FF47A73B3FB51
:10139000F1F3B2FBF3F3184600F03BF90346002BE0
:1013A00001D001230EE07B680F2B0AD80022796858
:1013B0004FF0FF3000F003F9064A7B68136000230A
:1013C00000E0012318460837BD4680BD000000201C
:1013D000080000200400002080B400AF054B1B78FB
:1013E0001A46054B1B681344034A136000BFBD46F1
:1013F00080BC7047080000208802002080B400AF45
:10140000024B1B681846BD4680BC7047880200200E
:1014100080B485B000AF78607B6803F00703FB60A1
:101420000C4BDB68BB60BA684FF6FF031340BB6030
:10143000FB681A02BB68134343F0BF6343F40033F5
:10144000BB60044ABB68D36000BF1437BD4680BC94
:10145000704700BF00ED00E080B400AF044BDB68D4
:101460001B0A03F007031846BD4680BC704700BF47
:1014700000ED00E080B483B000AF0346FB7197F944
:101480000730002B0BDBFB7903F01F02064997F9AD
:1014900007305B09012000FA02F241F8232000BF67
:1014A0000C37BD4680BC704700E100E080B483B0DB
:1014B00000AF03463960FB7197F90730002B0ADB58
:1014C0003B68DAB20C4997F907301201D2B20B44EB
:1014D00083F800230AE03B68DAB20849FB7903F09D
:1014E0000F03043B1201D2B20B441A7600BF0C3733
:1014F000BD4680BC704700BF00E100E000ED00E0A9
:1015000080B489B000AFF860B9607A60FB6803F01E
:101510000703FB61FB69C3F10703042B28BF042306
:10152000BB61FB690433062B02D9FB69033B00E076
:1015300000237B614FF0FF32BB6902FA03F3DA4309
:10154000BB681A407B699A404FF0FF317B6901FA12
:1015500003F3D9437B680B40134318462437BD4639
:1015600080BC704780B582B000AF78607B68013B7B
:10157000B3F1807F01D301230FE00A4A7B68013B6E
:1015800053600F214FF0FF30FFF790FF054B002213
:101590009A60044B07221A60002318460837BD469C
:1015A00080BD00BF10E000E080B582B000AF786081
:1015B0007868FFF72DFF00BF0837BD4680BD80B5B6
:1015C00086B000AF0346B9607A60FB7300237B618D
:1015D000FFF742FF78617A68B9687869FFF790FF92
:1015E000024697F90F3011461846FFF75FFF00BF1C
:1015F0001837BD4680BD80B582B000AF0346FB7191
:1016000097F907301846FFF735FF00BF0837BD468A
:1016100080BD80B582B000AF78607868FFF7A2FF28
:10162000034618460837BD4680BD80B485B000AF7C
:1016300078600023FB737B6893F82130022B08D07D
:101640007B6804229A637B68002283F820200123B0
:1016500020E07B681B681A687B681B6822F00E021A
:101660001A607B681B681A687B681B6822F001029D
:101670001A607B681A6C7B68DB6B012101FA02F24D
:101680005A607B68012283F821207B68002283F85E
:101690002020FB7B18461437BD4680BC70470000F5
:1016A00080B584B000AF78600023FB737B6893F84B
:1016B0002130022B05D07B6804229A630123FB733F
:1016C00051E07B681B681A687B681B6822F00E0279
:1016D0001A607B681B681A687B681B6822F001022D
:1016E0001A607B681B68224A934229D07B681B687A
:1016F000204A934222D07B681B681F4A93421AD02B
:101700007B681B681D4A934212D07B681B681C4A89
:1017100093420AD07B681B681A4A934202D14FF465
:1017200080130EE04FF080730BE04FF4803308E03D
:101730004FF4805305E04FF4807302E0102300E083
:101740000123114A53607B68012283F821207B68C2
:10175000002283F820207B685B6B002B03D07B6822
:101760005B6B78689847FB7B18461037BD4680BD99
:10177000080002401C0002403000024044000240C9
:10178000580002406C00024000000240F0B587B0F3
:1017900000AFF860B960C7E900230123FB7500239F
:1017A000BB7500237B752F4B1B7E012B01D10223C0
:1017B00054E02C4B01221A764CF2503000F0B2F873
:1017C0000346FB75FB7D002B44D1FB68012B02D146
:1017D00001237B7507E0FB68022B02D102237B7596
:1017E00001E004237B750023BB752DE0BB7D5A000F
:1017F000BB6802EB030CBB7D1901D7E90023C1F1E3
:101800002006A1F1200022FA01F403FA06F634437F
:1018100023FA00F0044323FA01F5A3B21946604607
:1018200000F064F84CF2503000F07CF80346FB7591
:101830000D4B1B690C4A23F001031361FB7D002B48
:1018400007D1BB7D0133BB75BA7D7B7D9A42CDD379
:1018500000E000BF034B00221A76FB7D18461C37C0
:10186000BD46F0BD900200200020024080B483B04D
:1018700000AF0023FB710D4B1B6903F08003002BAD
:101880000DD00A4B0A4A5A60084B0A4A5A60074B65
:101890001B6903F08003002B01D00123FB71FB794E
:1018A00018460C37BD4680BC704700BF0020024080
:1018B00023016745AB89EFCD80B400AF054B1B69B1
:1018C000044A43F08003136100231846BD4680BCE0
:1018D000704700BF0020024080B400AF024BDB69BC
:1018E0001846BD4680BC70479002002080B483B08B
:1018F00000AF78600B467B80084B0022DA61084B12
:101900001B69074A43F0010313617B687A881A80D8
:1019100000BF0C37BD4680BC704700BF900200205E
:101920000020024080B584B000AF7860FFF766FD0C
:10193000F86010E07B68B3F1FF3F0CD07B68002BB0
:1019400007D0FFF75BFD0246FB68D31A7A689A421C
:1019500001D2032325E0154BDB6803F00103002BC4
:10196000E8D1124BDB6803F02003002B02D00F4BB1
:101970002022DA600D4BDB6803F01003002B0BD143
:101980000A4BDB6903F00103002B05D1074BDB6831
:1019900003F00403002B03D000F00AF8012300E059
:1019A000002318461037BD4680BD00BF002002400E
:1019B00080B483B000AF00237B60234BDB6803F06F
:1019C0001003002B09D0214BDB6943F002031F4AAF
:1019D000D3617B6843F010037B601B4BDB6803F033
:1019E0000403002B09D0194BDB6943F00103174AAC
:1019F000D3617B6843F004037B60134BDB6903F026
:101A00000103002B0BD0114BDB6943F004030F4A99
:101A1000D3610D4BDB690C4A23F00103D3617B6872
:101A200040F20112934206D1074BDB69064A23F0CC
:101A30000103D36102E0044A7B68D36000BF0C3726
:101A4000BD4680BC704700BF0020024090020020CD
:101A500080B584B000AF786039600123FB73002348
:101A6000BB602F4B1B7E012B01D1022353E02C4B7B
:101A700001221A767B681B68022B16D14CF250307B
:101A8000FFF750FF0346002B41D1012000F04CF836
:101A90004CF25030FFF746FF0346FB73214B1B69A6
:101AA000204A23F00403136131E04CF25030FFF779
:101AB00039FF0346002B2AD13B684FF0FF321A60F2
:101AC0007B689B68BB6019E0B86800F049F84CF28D
:101AD0005030FFF727FF0346FB73124B1B69114A77
:101AE00023F002031361FB7B002B03D03B68BA6831
:101AF0001A600CE0BB6803F58063BB607B68DB6841
:101B00009A027B689B681344BA689A42DCD3044B00
:101B100000221A76FB7B18461037BD4680BD00BFF9
:101B2000900200200020024080B483B000AF7860B3
:101B3000094B0022DA61094B1B69084A43F0040390
:101B40001361064B1B69054A43F04003136100BF54
:101B50000C37BD4680BC7047900200200020024038
:101B600080B483B000AF78600B4B0022DA610B4B7E
:101B70001B690A4A43F002031361084A7B685361F8
:101B8000064B1B69054A43F04003136100BF0C3745
:101B9000BD4680BC704700BF90020020002002407C
:101BA00080B48BB000AF7860396000237B62002383
:101BB0003B6227E101227B6A02FA03F3FB613B6887
:101BC0001B68FA691340BB61BA69FB699A4240F02D
:101BD00016813B685B68122B34D0122B0DD8022B78
:101BE0002BD0022B04D8002B31D0012B1CD048E085
:101BF000032B43D0112B1BD043E0894A934226D0BC
:101C0000874A934206D8874A934220D0864A934215
:101C10001DD036E0854A934219D0854A934216D0AA
:101C2000844A934213D02CE03B68DB683B6228E097
:101C30003B68DB6804333B6223E03B68DB680833C6
:101C40003B621EE03B68DB680C333B6219E03B689B
:101C50009B68002B02D104233B6212E03B689B6827
:101C6000012B05D108233B627B68FA691A6108E001
:101C700008233B627B68FA695A6102E000233B62F9
:101C800000BFBB69FF2B01D87B6801E07B68043390
:101C90007B61BB69FF2B02D87B6A9B0002E07B6AF9
:101CA000083B9B003B617B691A680F213B6901FA85
:101CB00003F3DB431A40396A3B6901FA03F31A4321
:101CC0007B691A603B685B6803F08053002B00F06F
:101CD0009680594B9B69584A43F001039361564BD8
:101CE0009B6903F00103BB60BB68544A7B6A9B0895
:101CF000023352F82330FB607B6A03F003039B003E
:101D00000F2202FA03F3DB43FA681340FB607B689F
:101D10004B4A934213D07B684A4A93420DD07B686A
:101D2000494A934207D07B68484A934201D1032332
:101D300006E0042304E0022302E0012300E0002384
:101D40007A6A02F0030292009340FA681343FB6040
:101D50003A497B6A9B080233FA6841F823203B68C2
:101D60005B6803F48033002B06D0394B1A6838497E
:101D7000BB6913430B6006E0354B1A68BB69DB4354
:101D8000334913400B603B685B6803F40033002B5E
:101D900006D02F4B5A682E49BB6913434B6006E0AF
:101DA0002B4B5A68BB69DB43294913404B603B68A6
:101DB0005B6803F48013002B06D0254B9A682449F6
:101DC000BB6913438B6006E0214B9A68BB69DB4318
:101DD0001F4913408B603B685B6803F40013002BC2
:101DE00006D01B4BDA681A49BB691343CB6006E087
:101DF000174BDA68BB69DB4315491340CB607B6A3C
:101E000001337B623B681A687B6A22FA03F3002B7A
:101E10007FF4D0AE00BF2C37BD4680BC704700BFFA
:101E200000002110000011100000121000003110FD
:101E3000000032100000221000100240000001409B
:101E400000080140000C0140001001400014014056
:101E50000004014080B483B000AF78600B467B8003
:101E600013467B707B78002B03D07A887B681A61DD
:101E700003E07B881A047B681A6100BF0C37BD46FB
:101E800080BC704780B485B000AF78600B467B8023
:101E90007B68DB68FB607A88FB6813401A04FB6888
:101EA000D9437B880B401A437B681A6100BF143703
:101EB000BD4680BC7047000080B586B000AF78603A
:101EC0007B68002B01D101236CE27B681B6803F067
:101ED0000103002B00F08780924B5B6803F00C033A
:101EE000042B0CD08F4B5B6803F00C03082B12D132
:101EF0008C4B5B6803F48033B3F5803F0BD1894B87
:101F00001B6803F40033002B6CD07B685B68002BEC
:101F100068D1012346E27B685B68B3F5803F06D158
:101F2000804B1B687F4A43F4803313602EE07B684C
:101F30005B68002B0CD17B4B1B687A4A23F48033FF
:101F40001360784B1B68774A23F4802313601DE0ED
:101F50007B685B68B3F5A02F0CD1724B1B68714A8C
:101F600043F4802313606F4B1B686E4A43F4803345
:101F700013600BE06B4B1B686A4A23F480331360D9
:101F8000684B1B68674A23F4802313607B685B6897
:101F9000002B13D0FFF732FA386108E0FFF72EFA72
:101FA00002463B69D31A642B01D90323FAE15D4B46
:101FB0001B6803F40033002BF0D014E0FFF71EFA87
:101FC000386108E0FFF71AFA02463B69D31A642B1E
:101FD00001D90323E6E1534B1B6803F40033002BC4
:101FE000F0D100E000BF7B681B6803F00203002B08
:101FF00063D04C4B5B6803F00C03002B0BD0494BB8
:102000005B6803F00C03082B1CD1464B5B6803F4A0
:102010008033002B16D1434B1B6803F00203002BC7
:1020200005D07B681B69012B01D00123BAE13D4B30
:102030001B6823F0F8027B685B69DB0039491343B6
:102040000B603AE07B681B69002B20D0364B0122E5
:102050001A60FFF7D3F9386108E0FFF7CFF90246BD
:102060003B69D31A022B01D903239BE12D4B1B683B
:1020700003F00203002BF0D02A4B1B6823F0F80278
:102080007B685B69DB00274913430B6015E0264B37
:1020900000221A60FFF7B2F9386108E0FFF7AEF9E5
:1020A00002463B69D31A022B01D903237AE11D4B67
:1020B0001B6803F00203002BF0D17B681B6803F060
:1020C0000803002B3AD07B689B69002B19D0174B73
:1020D00001221A60FFF792F9386108E0FFF78EF9E4
:1020E00002463B69D31A022B01D903235AE10D4B57
:1020F0005B6A03F00203002BF0D0012000F0DAFA53
:102100001CE00A4B00221A60FFF778F938610FE0F3
:10211000FFF774F902463B69D31A022B08D903234F
:1021200040E100BF001002400000424280044242F1
:102130009E4B5B6A03F00203002BE9D17B681B68AE
:1021400003F00403002B00F0A6800023FB75974BDF
:10215000DB6903F08053002B0DD1944BDB69934A6C
:1021600043F08053D361914BDB6903F08053BB6034
:10217000BB680123FB758E4B1B6803F48073002B37
:1021800018D18B4B1B688A4A43F480731360FFF7A6
:1021900035F9386108E0FFF731F902463B69D31A97
:1021A000642B01D90323FDE0814B1B6803F480738A
:1021B000002BF0D07B68DB68012B06D17B4B1B6AC0
:1021C0007A4A43F0010313622DE07B68DB68002B41
:1021D0000CD1764B1B6A754A23F001031362734BD3
:1021E0001B6A724A23F0040313621CE07B68DB68FD
:1021F000052B0CD16D4B1B6A6C4A43F00403136230
:102200006A4B1B6A694A43F0010313620BE0674B98
:102210001B6A664A23F001031362644B1B6A634A1C
:1022200023F0040313627B68DB68002B15D0FFF7F3
:10223000E5F838610AE0FFF7E1F802463B69D31A96
:1022400041F28832934201D90323ABE0574B1B6A1A
:1022500003F00203002BEED014E0FFF7CFF8386153
:102260000AE0FFF7CBF802463B69D31A41F2883205
:10227000934201D9032395E04C4B1B6A03F0020300
:10228000002BEED1FB7D012B05D1484BDB69474A82
:1022900023F08053D3617B68DB69002B00F08180E1
:1022A000424B5B6803F00C03082B61D07B68DB6951
:1022B000022B46D13F4B00221A60FFF79FF838618E
:1022C00008E0FFF79BF802463B69D31A022B01D9BD
:1022D000032367E0354B1B6803F00073002BF0D13C
:1022E0007B681B6AB3F5803F08D1304B5B6823F4F1
:1022F00000327B689B682D4913434B602B4B5B6816
:1023000023F474127B68196A7B685B6A0B43274964
:1023100013434B60274B01221A60FFF76FF83861B7
:1023200008E0FFF76BF802463B69D31A022B01D98C
:10233000032337E01D4B1B6803F00073002BF0D024
:102340002FE01C4B00221A60FFF758F8386108E0B4
:10235000FFF754F802463B69D31A022B01D9032335
:1023600020E0124B1B6803F00073002BF0D118E043
:102370007B68DB69012B01D1012313E00B4B5B6808
:10238000FB60FB6803F480327B681B6A9A4206D1CB
:10239000FB6803F470127B685B6A9A4201D00123E8
:1023A00000E0002318461837BD4680BD00100240EB
:1023B000007000406000424280B584B000AF786099
:1023C00039607B68002B01D10123D0E06A4B1B6888
:1023D00003F007033A689A4210D9674B1B6823F051
:1023E000070265493B6813430B60634B1B6803F0AE
:1023F00007033A689A4201D00123B8E07B681B6862
:1024000003F00203002B20D07B681B6803F0040359
:10241000002B05D0594B5B68584A43F4E063536086
:102420007B681B6803F00803002B05D0534B5B68E7
:10243000524A43F460535360504B5B6823F0F00200
:102440007B689B684D4913434B607B681B6803F0B6
:102450000103002B40D07B685B68012B07D1474B01
:102460001B6803F40033002B15D101237FE07B6848
:102470005B68022B07D1414B1B6803F00073002BF4
:1024800009D1012373E03D4B1B6803F00203002BCD
:1024900001D101236BE0394B5B6823F003027B68B9
:1024A0005B68364913434B60FEF7A8FFF8600AE00B
:1024B000FEF7A4FF0246FB68D31A41F2883293422A
:1024C00001D9032353E02D4B5B6803F00C027B68BA
:1024D0005B689B009A42EBD1274B1B6803F0070314
:1024E0003A689A4210D2244B1B6823F00702224913
:1024F0003B6813430B60204B1B6803F007033A68EB
:102500009A4201D0012332E07B681B6803F0040388
:10251000002B08D0194B5B6823F4E0627B68DB6812
:10252000164913434B607B681B6803F00803002BBC
:1025300009D0124B5B6823F460527B681B69DB0097
:102540000E4913434B6000F021F801460B4B5B68CA
:102550001B0903F00F030A4AD35C21FA03F3094A6B
:102560001360094B1B681846FEF706FF0023184648
:102570001037BD4680BD00BF002002400010024061
:10258000784C0008000000200400002090B48AB0BD
:1025900000AF2A4B3C1D0FCB84E80F00284B1B8853
:1025A0003B800023FB610023BB6100237B6200238F
:1025B0007B6100233B62234B5B68FB61FB6903F09B
:1025C0000C03042B02D0082B03D02DE01E4B3B62E2
:1025D0002DE0FB699B0C03F00F0307F12802134465
:1025E00013F8243C7B61FB6903F48033002B13D088
:1025F000144B5B685B0C03F0010307F128021344E2
:1026000013F8283CBB617B690F4A02FB03F2BB69EC
:10261000B2FBF3F37B6204E07B690C4A02FB03F339
:102620007B627B6A3B6202E0074B3B6200BF3B6A16
:1026300018462837BD4690BC704700BF644C000860
:10264000744C00080010024000127A0000093D009E
:1026500080B400AF024B1B681846BD4680BC704773
:102660000000002080B500AFFFF7F2FF0146054BE8
:102670005B681B0A03F00703034AD35C21FA03F3E8
:10268000184680BD00100240884C000880B500AF9D
:10269000FFF7DEFF0146054B5B68DB0A03F007032B
:1026A000034AD35C21FA03F3184680BD00100240B0
:1026B000884C000880B485B000AF78600A4B1B6876
:1026C0000A4AA2FB03235B0A7A6802FB03F3FB605E
:1026D00000BFFB685A1EFA60002BF9D100BF143707
:1026E000BD4680BC704700BF00000020D34D621083
:1026F00080B582B000AF78607B68002B01D10123E8
:102700003FE07B6893F83D30DBB2002B06D17B685D
:10271000002283F83C207868FEF730FD7B68242295
:1027200083F83D207B681B68DA687B681B6822F4AD
:102730000052DA60786800F0ABFB7B681B681A69AE
:102740007B681B6822F490421A617B681B685A6997
:102750007B681B6822F02A025A617B681B68DA6872
:102760007B681B6842F40052DA607B6800221A64BE
:102770007B68202283F83D207B68202283F83E205E
:10278000002318460837BD4680BD80B584B000AF31
:10279000F860B9601346FB80FB6893F83E30DBB20B
:1027A000202B1DD1BB68002B02D0FB88002B01D150
:1027B000012316E0FB6893F83C30012B01D1022382
:1027C0000FE0FB68012283F83C20FB6800221A63BB
:1027D000FB881A46B968F86800F0D1F9034600E0B2
:1027E000022318461037BD4680BD000080B58AB070
:1027F00000AF78607B681B681B687B627B681B6826
:10280000DB683B627B681B685B69FB610023BB6123
:1028100000237B617B6A03F00F03BB61BB69002B64
:102820000DD17B6A03F02003002B08D03B6A03F034
:102830002003002B03D0786800F081FA7CE1BB69AB
:10284000002B00F0B180FB6903F00103002B05D1E0
:102850003B6A03F49073002B00F0A6807B6A03F0C0
:102860000103002B0AD03B6A03F48073002B05D0D0
:102870007B681B6C43F001027B681A647B6A03F07F
:102880000403002B0AD0FB6903F00103002B05D0E1
:102890007B681B6C43F002027B681A647B6A03F05E
:1028A0000203002B0AD0FB6903F00103002B05D0C3
:1028B0007B681B6C43F004027B681A647B6A03F03C
:1028C0000803002B0FD03B6A03F02003002B04D138
:1028D000FB6903F00103002B05D07B681B6C43F000
:1028E00008027B681A647B681B6C002B00F01F8158
:1028F0007B6A03F02003002B07D03B6A03F0200320
:10290000002B02D0786800F01AFA7B681B685B69BC
:1029100003F04003002B14BF01230023DBB27B61D3
:102920007B681B6C03F00803002B02D17B69002B32
:1029300031D0786800F05CF97B681B685B6903F054
:102940004003002B23D07B681B685A697B681B6897
:1029500022F040025A617B689B6B002B13D07B688E
:102960009B6B774A5A637B689B6B1846FEF798FE11
:102970000346002B16D07B689B6B5B6B7A68926B6F
:10298000104698470EE0786800F0E5F80AE07868AD
:1029900000F0E1F806E0786800F0DDF87B680022DE
:1029A0001A64C4E000BFC2E07B681B6B012B40F0DF
:1029B000A1807B6A03F01003002B00F09B803B6A30
:1029C00003F01003002B00F095800023FB607B6870
:1029D0001B681B68FB607B681B685B68FB60FB68AF
:1029E0007B681B685B6903F04003002B4ED07B685B
:1029F0009B6B1B685B683B823B8A002B00F09980D5
:102A00007B689B8D3A8A9A4280F093807B683A8AF1
:102A1000DA857B689B6B9B69202B2BD07B681B68BE
:102A2000DA687B681B6822F48072DA607B681B6856
:102A30005A697B681B6822F001025A617B681B6837
:102A40005A697B681B6822F040025A617B68202229
:102A500083F83E207B6800221A637B681B68DA6873
:102A60007B681B6822F01002DA607B689B6B18465B
:102A7000FEF7DBFD7B689A8D7B68DB8D9BB2D31AFA
:102A80009BB21946786800F06FF852E07B689A8D27
:102A90007B68DB8D9BB2D31A7B827B68DB8D9BB21C
:102AA000002B48D07B8A002B45D07B681B68DA68F6
:102AB0007B681B6822F49072DA607B681B685A6935
:102AC0007B681B6822F001025A617B68202283F830
:102AD0003E207B6800221A637B681B68DA687B688B
:102AE0001B6822F01002DA607B8A1946786800F0D1
:102AF0003BF820E07B6A03F08003002B08D03B6AA0
:102B000003F08003002B03D0786800F0B1F813E0E5
:102B10007B6A03F04003002B0ED03B6A03F04003B6
:102B2000002B09D0786800F0F2F800BF04E000BF85
:102B300002E000BF00E000BF2837BD4680BD00BFF7
:102B4000492C000880B483B000AF786000BF0C3718
:102B5000BD4680BC704780B483B000AF786000BFD2
:102B60000C37BD4680BC704780B483B000AF78603E
:102B70000B467B8000BF0C37BD4680BC704780B4DD
:102B800085B000AFF860B9601346FB80FB68BA6897
:102B90009A62FB68FA889A85FB68FA88DA85FB688E
:102BA00000221A64FB68222283F83E20FB68002280
:102BB00083F83C20FB681B68DA68FB681B6842F4FA
:102BC0008072DA60FB681B685A69FB681B6842F018
:102BD00001025A61FB681B68DA68FB681B6842F0F7
:102BE0002002DA60002318461437BD4680BC7047C7
:102BF00080B483B000AF78607B681B68DA687B685C
:102C00001B6822F49072DA607B681B685A697B68E3
:102C10001B6822F001025A617B681B6B012B07D1F4
:102C20007B681B68DA687B681B6822F01002DA6038
:102C30007B68202283F83E207B6800221A6300BF55
:102C40000C37BD4680BC704780B584B000AF78605B
:102C50007B685B6AFB60FB680022DA85FB68002208
:102C6000DA84F868FFF777FF00BF1037BD4680BDF4
:102C700080B485B000AF78607B6893F83D30DBB2FC
:102C8000212B3ED17B689B68B3F5805F14D17B68B4
:102C90001B69002B10D17B681B6AFB60FB681B88DB
:102CA0001A467B681B68C2F308025A607B681B6A7D
:102CB0009A1C7B681A6208E07B681B6A591C7A6858
:102CC00011621A787B681B685A607B68DB8C9BB248
:102CD000013B9BB27A681946D184002B0FD17B68E7
:102CE0001B68DA687B681B6822F08002DA607B6808
:102CF0001B68DA687B681B6842F04002DA600023D8
:102D000000E0022318461437BD4680BC704780B5EA
:102D100082B000AF78607B681B68DA687B681B68EC
:102D200022F04002DA607B68202283F83D20786838
:102D3000FFF708FF002318460837BD4680BD80B561
:102D400086B000AF78607B6893F83E30DBB2222B10
:102D500040F099807B689B68B3F5805F17D17B68F2
:102D60001B69002B13D100237B617B689B6A3B614D
:102D70007B681B685B689BB2C3F308039AB23B692C
:102D80001A807B689B6A9A1C7B689A6226E07B6843
:102D90009B6A7B6100233B617B689B68B3F5805F26
:102DA00007D07B689B68002B0AD17B681B69002BCE
:102DB00006D17B681B685B68DAB27B691A7008E031
:102DC0007B681B685B68DBB203F07F03DAB27B6968
:102DD0001A707B689B6A5A1C7B689A627B68DB8DE1
:102DE0009BB2013B9BB27A681946D185002B48D132
:102DF0007B681B68DA687B681B6822F02002DA6057
:102E00007B681B68DA687B681B6822F48072DA6072
:102E10007B681B685A697B681B6822F001025A6153
:102E20007B68202283F83E207B681B6B012B23D11B
:102E30007B6800221A637B681B68DA687B681B6802
:102E400022F01002DA607B681B681B6803F0100335
:102E5000102B0AD10023FB607B681B681B68FB609A
:102E60007B681B685B68FB60FB687B689B8D194611
:102E70007868FFF779FE02E07868FEF72DF9002305
:102E800002E0002300E0022318461837BD4680BD4B
:102E900080B584B000AF78607B681B681B6923F441
:102EA00040517B68DA687B681B680A431A617B685B
:102EB0009A687B681B691A437B685B691343BB6034
:102EC0007B681B68DB6823F4B05323F00C037A683B
:102ED0001268B9680B43D3607B681B685B6923F495
:102EE00040717B689A697B681B680A435A617B68FA
:102EF0001B682C4A934203D1FFF7C8FBF86002E03D
:102F0000FFF7B0FBF860FA6813469B0013449A0081
:102F10001A447B685B689B00B2FBF3F3224AA2FB76
:102F200003235B091901FA6813469B0013449A00B6
:102F30001A447B685B689B00B2FBF3F21A4BA3FB5D
:102F400002035B09642000FB03F3D31A1B01323335
:102F5000154AA2FB03235B0903F0F0031944FA6846
:102F600013469B0013449A001A447B685B689B00DD
:102F7000B2FBF3F20C4BA3FB02035B09642000FBE2
:102F800003F3D31A1B013233074AA2FB03235B0965
:102F900003F00F027B681B680A449A6000BF103779
:102FA000BD4680BD003801401F85EB51002100F077
:102FB00057BE0000014B1868704700BF0C0000208E
:102FC00070B500250C4E0D4CA41BA410A54209D1D0
:102FD00001F03AFE00250A4E0A4CA41BA410A5429B
:102FE00005D170BD56F8253098470135EEE756F803
:102FF000253098470135F2E7004F0008004F0008E0
:10300000004F0008044F000803460244934200D1D9
:10301000704703F8011BF9E72DE9F0410F46904690
:1030200001F042FC04460D46B8F1000F11D0C7F381
:103030000A53C3F16B03002B0BDD00241B0503F1C6
:103040007F5505F5401522462B46FDF745FA044607
:103050000D4620462946BDE8F08100000000000032
:103060002DE9F04F1F460023A1B0834638460E4697
:1030700017921C9301F02EF980460068FDF768F85E
:103080004FF0000904464FF0000A1B961B9B1A786C
:103090000D2A32D8092A36D2002A3ED000230D93B9
:1030A0001B9D2B78302B40F0AC806B78582B01D0D7
:1030B000782B67D10D9B029701931CAB0093894A33
:1030C0001DAB1BA9584600F02DFE10F00704064664
:1030D00005D0062C2BD1002301351B950D93179B92
:1030E000002B40F0A6850D9BE3B14A460AF1004350
:1030F0001046194621B0BDE8F08F2B2A15D02D2A95
:1031000004D0202ACAD101331B93BFE701220D92BC
:103110005A1C1B925B78002BC2D1179B1B96002B6D
:1031200040F085854A465346E2E70022EFE71C9AC5
:103130003AB135211EA801F0AAFC1C99584601F0AD
:103140001CF9013C042C06D8DFE804F00A0314172C
:103150000A00DDE91E9A3107C1D54AF0004ABEE7F0
:103160001D9ADDE91E9302F2334223F4801343EAF1
:10317000025AF0E7DFF870A1EDE76FF0004A4FF078
:10318000FF39E8E71B9B5A1C1B925B78302BF9D068
:10319000002BA4D0012300250A2207931B9B069530
:1031A000089304951B980778A7F13003D9B2092931
:1031B00029D92246D8F8001001F01CFD002831D092
:1031C00000203B460246049C0590652B01D0452B10
:1031D00014D124B910B9079B002B9ED000241B9E4C
:1031E000731C1B9373782B2B78D02D2B70D04FF042
:1031F000000CA3F13007092F7CD91B964FF0000E6D
:103200009AE00023C7E7049901300829D7BF06993F
:1032100002FB053502FB01330693049B1B9001332F
:103220000493BFE71B9B1A191B92049A1B5D002A8B
:1032300037D00246049CA3F13001092913D901219A
:103240000591C2E71B9B01305A1C1B925B78302B07
:10325000F8D0A3F13102082A00F2F0841B9A0892F8
:10326000024600200446B3F1300E00F1010112D0F5
:103270000A440A27214600EB040C8C4513D121187F
:10328000082904F10104044419DC0A21069B01FB0E
:1032900003E3069300211B9B581C1B905B78084698
:1032A000C9E70498D3E7082901F1010103DC069B73
:1032B0007B430693E1E71029D8BF7D43DDE7102C5F
:1032C000DCBF0A2101FB05E5E4E70123059381E763
:1032D0004FF0010CB31C1B93B3788AE74FF0000C3E
:1032E000F8E700BF9C4C00080000F07F1B9B5F1CB0
:1032F0001B975B78302BF9D0A3F13107082F3FF6ED
:103300007DAFA3F1300E1B9B09931B9B5F1C1B978A
:103310005B78A3F13008B8F1090F37D909997F1A02
:10332000082F44F61F6737DCBE45A8BFBE46BCF178
:10333000000F01D0CEF1000E002C51D100287FF4F7
:10334000CEAE079A002A7FF4CAAE059A002A7FF40F
:10335000E4AE4E2B27D021DC492B7FF4DEAEA4490E
:103360001BA800F013FF00283FF4D7AE1B9BA14918
:10337000013B1BA81B9300F009FF10B91B9B0133F5
:103380001B93DFF884A24FF00009A8E60A2101FB95
:103390000E3EAEF1300EB8E7BE46C8E7692BDED070
:1033A0006E2B7FF4BAAE94491BA800F0EFFE002804
:1033B0003FF4B3AE1B9B1B78282B0ED11EAA8F495E
:1033C0001BA800F0F7FE052807D11F9BDDF87890B9
:1033D00043F0FF4A4AF4E00A81E6DFF834A2D2E77C
:1033E000AEEB02030793049B0698002B08BF23460D
:1033F000102C0493A046A8BF4FF01008FCF7F2FF72
:10340000092C81468A4613DC079B002B3FF467AEEC
:10341000079B7EDD162B65DC794A02EBC30E4A461C
:10342000DEE900015346FDF757F881468A4656E625
:10343000734B03EBC80353E91223FDF74DF806461F
:1034400028460F46FCF7CEFF02460B46304639466B
:10345000FCF78CFE0F2C81468A46D5DD079BA4EB3A
:1034600008089844B8F1000F40F39A8018F00F0351
:103470000AD063494A4601EBC301D1E90001534632
:10348000FDF72AF881468A4638F00F0877D0B8F55C
:103490009A7F4BDD4FF00008CDF81080CDF82080EA
:1034A000CDF8188022234FF00009DFF85CA1CBF89B
:1034B0000030089B002B3FF412AE1C99584600F0D8
:1034C0005CFF0699584600F058FF0499584600F0F2
:1034D00054FF0899584600F050FF4146584600F006
:1034E0004CFFFCE5079AC4F125039342B6DB444D3B
:1034F000C4F10F0405EBC4014A46D1E9000153466B
:10350000FCF7EAFF079B1C1B05EBC405D5E900236C
:1035100089E713F1160FA1DB394A4846A2EBC30233
:10352000D2E900235146FDF701F97EE70023484622
:1035300051461D46334E4FEA2818B8F1010F21DCE1
:103540000BB181468A462F4BAAF1547A03EBC5058D
:103550004A46D5E900015346FCF7BEFF2A4B0A460E
:103560000B402A4981468B4294D8A1F580118B42A9
:1035700086BF4FF0FF39DFF89CA002F1547A002398
:1035800005937BE018F0010F06D006EBC503D3E9E5
:103590000023FCF7A1FF012301354FEA6808CCE7BF
:1035A000EDD0C8F1000818F00F020AD0144B4846BD
:1035B00003EBC2035146D3E90023FDF7B7F8814678
:1035C0008A465FEA2818DAD0B8F11F0F24DD4FF0E1
:1035D0000008CDF81080CDF82080CDF81880222387
:1035E0004FF000094FF0000ACBF8003061E700BF50
:1035F000904C0008934C0008994C0008B04C00080F
:10360000284D0008004D00080000F07F0000A07C5D
:103610000000F8FFFFFFEF7F18F0100318BF6A23C8
:103620004846059351460023A14DB8F1000F00F321
:1036300013810BB181468A46059BBBB1CAF30A537D
:10364000C3F16B03002B514610DD1F2B40F310819B
:10365000342BD8BF4FF0FF324FF00009CFBF4FF0EF
:103660005C7A203B02FA03F303EA010A00220023FA
:1036700048465146FDF798F90028A8D1069B049AC0
:10368000009308992346584600F0C9FE0890002888
:103690003FF400AF079A079B002AC3F10003A8BFBD
:1036A00000234FF000080E9322EAE2731693CDF840
:1036B0001080089B5846596800F02BFE06900028A1
:1036C0003FF4F0AE089B0C301A6903F10C01023292
:1036D000920000F013FE1EAB01931DAB00934A460F
:1036E00053465846CDE90A9A01F054F91C90002837
:1036F0003FF4D8AE0121584600F01DFF0490034668
:1037000000283FF4CFAE1D9D1E9A002DABBF0E9B2F
:10371000169BEE185C1B059BA8BF169CA5EB03052A
:103720001544644B05F1FF35B8BF0E9E9D42C2F1B2
:10373000360280F2AF805B1B1F2BA2EB03024FF01F
:10374000010700F39C80002507FA03F30F93B718D5
:10375000059BBE4214441C443346A8BF3B46A342CB
:10376000A8BF2346002BC2BFFF1AE41AF61A0E9B0D
:10377000BBB11A460499584600F07CFF049000281B
:103780003FF490AE01461C9A584600F0DDFE0990C9
:1037900000283FF487AE1C99584600F0EEFD099BC7
:1037A0001C93002F7ADC079B002B08DD169A0699E4
:1037B000584600F05FFF069000283FF473AE002CDF
:1037C00008DD22460699584600F0A2FF0690002820
:1037D0003FF468AE002E08DD32460499584600F0EA
:1037E00097FF049000283FF45DAE069A1C99584656
:1037F00000F0FCFF804600283FF454AE0024C3686C
:103800000499C4600C9300F0D7FFA04254DA0C9BDB
:10381000F3B9B9F1000F1BD1CAF31303C3B92AF0EE
:1038200000431B0D1B05B3F1D66F11D9D8F8143026
:103830001BB9D8F81030012B0ADD41460122584649
:1038400000F066FF0499804600F0B6FF002868DCAF
:10385000059B002B72D130E618F0010F04D0D5E99A
:103860000023FCF739FE01234FEA68080835DCE63F
:103870004FF0FF3202FA03F303EA0909F6E6C5F155
:103880007F4505F57F0505F57B45E23507FA05F52A
:103890000F975CE7012300250F9358E73A461C99E0
:1038A000584600F035FF1C9000287FF47CAFF9E506
:1038B000C84C000802FCFFFFCDF824A040F089802E
:1038C0000C9ACAF3130342B3AF4A934256D1059BF5
:1038D0004846EBB15346AD4A4FF0FF311A40B2F1C2
:1038E000D46F18D8120DC2F16B0301FA03F398429A
:1038F00044D1A74B099A9A4202D101303FF4D2AD8C
:10390000A24B099A4FF000091A4002F5801A9FE76E
:103910004FF0FF33EBE70B46E9E77BBBB9F1000F54
:103920002CD105995346994AF1B102EA0A01B1F145
:10393000D66F19DCB1F15C7F7FF751AE0023954A59
:103940004846CDE914325146DDE91423FCF7C4FDA5
:1039500081468A4600297FF4B0AD00287FF4ADADE2
:103960002223CBF80030A8E51340A3F580136FEABB
:10397000135A4FF0FF396FEA0A5A69E79DB1099B64
:103980001D423FF465AF0C9B059A4846514673B102
:10399000FFF742FB02460B46DDE90A01FCF7E6FBB6
:1039A00081468A4654E70F9B13EA090FE9E7FFF7C0
:1039B00033FB02460B46DDE90A01FCF7D5FB00228A
:1039C000002381468A46FCF7EFFF00287FF407AE0C
:1039D0003EE70499404601F02CF800224FF0804366
:1039E00006460F46FCF7F4FF002875D00C9B002B11
:1039F00047D00026684F684D099B23F000431B0DFC
:103A00001B050F930F9A654B9A4240F0CF80DDE97A
:103A10000A23CDE91423099B4846A3F1547A514661
:103A200000F042FF02460B4630463946FCF754FD93
:103A30004A465346FCF79AFB0B465449584A1940EC
:103A4000914281465ED90B9B02F15472934203D19D
:103A50000A9B01333FF426AD4FF0FF39DFF830A168
:103A60001C99584600F089FC0699584600F085FCE0
:103A70000499584600F081FC4146584600F07DFC10
:103A800017E6B9F1000F19D1099BC3F31303E3B98A
:103A90000022414B30463946FCF790FFC8B900225E
:103AA000404B30463946FCF717FD04460D4605F1FC
:103AB000004318941993DDE918679DE7B9F1010FE8
:103AC00003D1099B002B3FF48AAD0026364F00241A
:103AD00091E70C9C334DEAE7324B002230463946E1
:103AE000FCF7FAFC0C9B04460D4633B901F1004388
:103AF00010901193DDE910677EE702460B46CDE991
:103B00001023F7E703F1547A059B002BA8D12AF084
:103B100000431B0D0F9A1B059A425646A0D1294619
:103B20002046FCF773FFFCF76DFC0B460246294666
:103B30002046FCF719FB0C9B04460D4633B9B9F13E
:103B4000000F03D1CAF31306002E6AD00AA3D3E9EB
:103B5000002320462946FCF731FF00287FF4ADAC56
:103B600007A3D3E9002320462946FCF745FF002898
:103B70003FF476AFA1E400BF9535A094FFFFDF3F8F
:103B800035E5AF350000E03FFFFF0F000000F07F9C
:103B9000FFFFEF7F000050390000F03F0000E07FA2
:103BA000FFFF9F7C0000E03F0000F0BF059B13B3C8
:103BB0000F9BB3F1D46F1ED825A3D3E90023204671
:103BC0002946FCF705FF90B129462046FCF746FF41
:103BD000002808BF0120FCF705FC0C9B04460D469D
:103BE000D3B901F1004312901393DDE912670F9AE4
:103BF00007F1D6639F1ADDE90A0100F055FE02467F
:103C00000B4630463946FCF767FCDDE90A23FCF732
:103C1000ADFA81468A4677E702460B46CDE9122384
:103C2000E3E70DA3D3E90023FCF7C8FE9FE70023D9
:103C30000D931B9B179A1360FFF755BA652B4FF036
:103C400000023FF442AB012114460591FFF7BFBAD1
:103C50000000C0FFFFFFDF419535A094FFFFCF3F7D
:103C6000064B10B41C68064A236A002B08BF134693
:103C70000A460146204610BCFFF7F2B90C000020AE
:103C800070000020F0B506694B119E4200F114044B
:103C900031DD11F01F0104EB860604EB830208D12D
:103CA0002146B2420B4611D252F8043B41F8043B84
:103CB000F7E754F823502346C1F1200CCD400432DD
:103CC000B24217460DD31D6005B10433A342A3EBE6
:103CD000040208BF00234FEAA202026108BF436149
:103CE000F0BD3F6807FA0CF73D4343F8045B52F818
:103CF000045BCD40E4E72346E8E7A0F13003092B5D
:103D000002D82038C0B27047A0F16103052B01D85A
:103D10004738F7E7A0F14103052B01D82738F1E731
:103D2000002070472DE9F04F8BB0029016988A461C
:103D30009046069300F0CEFA03684FF0000B184649
:103D40000393FCF705FA039B0190034413F8013C2D
:103D50000793DAF8003002331F4613F8010B3028BE
:103D60006CD0FFF7CAFF044600286AD1019A039974
:103D7000384600F03FFF002866D1019BF85CFE1832
:103D8000FFF7BBFF002862D0334618781F46302863
:103D900003F10103F9D0FFF7B0FFB0FA80F5344624
:103DA0004FF0010B6D093A46164630780132FFF7A5
:103DB000A4FF0028F8D1019A0399304600F01AFFB9
:103DC00050B954B9019BF418224616463078013296
:103DD000FFF793FF0028F8D10CB1A41BA40033789F
:103DE000502B01D0702B40D173782B2B31D02D2B41
:103DF00033D04FF00009711C0878FFF77EFF431E97
:103E0000DBB2182B31D8A0F1100211F8010FFFF727
:103E100074FF431EDBB2182B22D9B9F1000F00D07A
:103E200052421444CAF800100DB3BBF1000F0CBF8E
:103E30000627002738460BB0BDE8F08F0BF1010BC9
:103E40008AE700252C46AEE73E460125C7E7044633
:103E5000FBE74FF00009B11CCEE74FF00109FAE78C
:103E60000A2303FB0202103ACFE73146DAE729467C
:103E7000F31B013B072B49DC029800F04AFA4FF094
:103E8000000B0546DA46019B00F11409C3F101035A
:103E9000CDF810900893B7423BD3049840F804AB98
:103EA000A0EB0900801028614701504600F0F5FAA8
:103EB000D8F800603F1AB74264DDBF1B3946284678
:103EC00000F0FFFD824678B14FF0010A7B1E5911C8
:103ED00003F01F0259F821100AFA02F20A4203D035
:103EE000534546DC4FF0020A39462846FFF7CAFE22
:103EF0003C44D8F80830A34252DA2946029800F030
:103F00003CFA0023149AA327136093E701315B1056
:103F1000B0E7731E0593079A16F8013C934218D038
:103F2000BBF1200F07D1049BC3F800A04FF0000A9B
:103F3000D3460433049316F8010CFFF7DEFE00F0BD
:103F40000F0000FA0BF04AEA000A0BF1040B059B84
:103F50000DE0059B089A1344BB42E1D31846019A31
:103F60000399099300F046FE099B0028D8D11E460C
:103F700091E7B91E284600F0A4FD0028B2D04FF00A
:103F8000030AB1E709DAF71B29463A46029800F01E
:103F9000BFFB0546E41B00F114094FF0000AA8E737
:103FA000D8F80400A0426BDD041BA6422EDCD8F832
:103FB0000C30022B22D0032B24D0012B15D1A6428A
:103FC00013D1012E0BDCD8F80430069A6227136057
:103FD00001232B61C9F80030149B1D602AE7711E74
:103FE000284600F06EFD0028EDD12946029800F029
:103FF000C4F90023149A502713601BE7159B002B6C
:10400000E1D0F2E7159B002BDDD1EEE7671EBAF198
:10401000000F32D127B13946284600F052FD8246C2
:1040200001237A1107F01F0703FA07F759F8223026
:1040300021461F424FF00207284618BF4AF0020AE5
:10404000361BFFF71FFED8F80440BAF1000F48D026
:10405000D8F80C30022B15D0032B17D0012B09D127
:104060001AF0020F06D0D9F800304AEA030A1AF013
:10407000010F0ED147F0100733E04FF0010ACFE7F0
:104080000127E2E7159BC3F101031593159B002B54
:10409000F0D04FF0000CD5F8109005F114034FEA62
:1040A000890A03EB0A01184653F8042BB2F1FF3FCB
:1040B0001CD001320260022F05F1140338D1D8F868
:1040C0000020013AB2420AD10122711153F8213085
:1040D00006F01F0602FA06F61E4218BF174647F002
:1040E0002007149B1D60069B1C60A3E6994243F8C1
:1040F00004CCD8D8AB68994512DB696802980131C5
:1041000000F007F983462A6905F10C01023292009A
:104110000C3000F0F3F82946029800F02EF95D46C5
:104120002B695A1C2A61012205EB83035A61C2E7FD
:104130002A694A450BDD01212846FFF7A3FDD8F87F
:1041400008300134A342FFF6D8AE0127C7E716F0C6
:104150001F06FAD09A445AF8040C00F09EF9C6F1F2
:104160002006B042E7DBF0E7C2F10802920070B52A
:10417000C2F120064368046803FA06F52C43D340D5
:10418000046040F8043F8842F4D370BD30B5036842
:10419000013311F8014B14B90360012030BD13F84D
:1041A000012BA2F14105192D98BF2032A242F0D077
:1041B0000020F3E72DE9F04F00250B6882465F11E0
:1041C00002EB870713F01F0318BF04373E1F90460A
:1041D000B1463446AB4687B00168019347F8045CAA
:1041E00002954A784B1C039342B310460591049202
:1041F000FFF783FD002843D1049A0599202A18D897
:10420000029B9B4513DD4C4506D2072D04DC2A4654
:1042100049462046FFF7A8FF444544D90023A4F1AE
:10422000040944F8043C1D464C46CDF808B00399F7
:10423000D7E7292A4AD10231CAF80010BBF1000F92
:1042400044D04C4506D2072D04DC2A464946204678
:10425000FFF78AFF444528D9434654F8042BA64269
:1042600043F8042BF9D2002243F8042B9E42FBD2E0
:1042700033681BB9464527D101233360052026E06A
:104280000135082D0BF1010B06DD4445CFD9002384
:10429000012544F8043C043C226800F00F0040EA89
:1042A00002102060C3E70825C1E7019B002BDFD087
:1042B0004FF0FF32C3F1200322FA03F357F8042C26
:1042C0001A4047F8042CD3E7043ED1E7042007B096
:1042D000BDE8F08FF030704782B001B901A942B15A
:1042E0004BB113780B601278101C18BF012002B07C
:1042F00070471046FBE76FF00100F8E710B5431E6A
:104300000A44914200D110BD11F8014B03F8014F4E
:10431000F7E770B5456A04460E463DB9102000F037
:1043200089FC6062C0E901550560C560656AEB689B
:1043300083B1636ADB6853F82600B8B9012101FA3A
:1043400006F56A1D9200204600F0DCFB60B1C0E972
:1043500001650EE021220421204600F0D3FB636AB0
:10436000E860DB68002BE4D1002070BD026843F8F0
:1043700026200023C0E90333F7E770B5446A0646F8
:104380000D463CB9102000F055FC7062C0E90144B4
:104390000460C4603DB1736A6A68DB6853F8221038
:1043A000296043F8225070BD2DE9F0411F460646B2
:1043B0000C4600230D6901F1140CDCF800000133F8
:1043C00081B202FB0171000C0F0C02FB007089B27C
:1043D00001EB00419D424FEA10474CF8041BECDC16
:1043E000D7B1A368AB4212DC616830460131FFF7F8
:1043F00090FF8046226904F10C01023292000C30D9
:10440000FFF77CFF21463046FFF7B7FF444604EB39
:10441000850301355F6125612046BDE8F0812DE906
:10442000F843154609221F4608330C4693FBF2F366
:104430000646012200219A4220DB3046FFF769FF41
:10444000089B092D43614FF00103036119DD04F15D
:104450000908C1462C4419F8013B0146303B0A22A9
:104460003046FFF7A1FFA145F5D108EB0504083C54
:104470002D1B6319BB4207DBBDE8F88352000131F5
:10448000D9E70A340925F3E714F8013B0146303B2C
:104490000A223046FFF788FFEBE7020C12040346BE
:1044A000B2B90304102013F07F4F04BF1B02083081
:1044B00013F0704F04BF1B01043013F0404F04BFD2
:1044C0009B000230002B06DB5B0003D501307047F8
:1044D0000020E8E7202070470368014613F0070238
:1044E0000BD0DA0723D4980749BF5B089B0801204B
:1044F0000B605CBF0B600220704798B2A8B9102017
:104500001B0C13F0FF0F04BF1B0A08301A0704BF6F
:104510001B0904309A0704BF9B080230DA0702D453
:104520005B0806D001300B6070471046E9E70020B9
:1045300070472020704710B50C460121FFF7E9FEB7
:1045400001224461026110BD2DE9F74F14460A694A
:10455000236988469A42BEBF0B46A0461C46D8F83F
:104560001070D4F81090D8F80830D8F8041007EB81
:104570000906B342B8BF0131FFF7CBFE00F11405C5
:104580002B46002205EB860E734516D304F1140268
:1045900008F1140102EB890301EB87070093009BEC
:1045A000019293420CD8002E03DD5EF8043D002BEF
:1045B0005DD0066103B0BDE8F08F43F8042BE3E75C
:1045C000B2F800B0BBF1000F23D08946AC464FF0E3
:1045D000000859F8044BDCF800A0A3B21FFA8AFACD
:1045E0000BFB03A34FEA144ADCF8004043444FEAB4
:1045F00014480BFB0A84E24604EB13449BB243EAE3
:1046000004434F454FEA14484AF8043B2BD8CCF8F2
:104610000480019B0432B3F802A0BAF1000F20D04D
:104620008946A8464FF0000B2B68B9F800C0B8F8CF
:1046300002409BB20AFB0C44C4465C4443EA044378
:104640004CF8043B59F8043BB8F804B01B0C0AFBC7
:1046500003B34F4503EB14434FEA134B05D8C8F897
:10466000043004359BE7D446B3E7E046DDE7013E7E
:1046700099E700002DE9F843154612F003020646BB
:104680000F4607D0214C013A002354F82220FFF7AF
:104690008BFE0746AD1035D0746A3CB9102000F08F
:1046A000C9FA7062C0E901440460C460D6F824808D
:1046B000D8F808404CB940F271213046FFF73BFF73
:1046C00000230446C8F8080003604FF00008EB0719
:1046D0000AD5394622463046FFF736FF814639462D
:1046E0003046FFF74AFE4F466D100BD0206838B9B0
:1046F000224621463046FFF727FF2060C0F80080A1
:104700000446E4E73846BDE8F88300BFF04D0008F2
:104710002DE9F0470C460746164623694FEA621A10
:104720000AEB03094968A36809F10105AB4232DBD2
:104730003846FFF7EEFD002380461A4600F11401CB
:1047400053452BDB20692AEAEA7A04F1140316F0B8
:104750001F0201EB8A0103EB800C25D00020C2F17F
:10476000200E8A461E68964030434AF8040B53F8E0
:10477000040B9C4520FA0EF014D8486008B109F1EA
:104780000205013D3846C8F810502146FFF7F5FDF7
:104790004046BDE8F08701315B00C7E741F82320C0
:1047A0000133CDE75146DCE7043953F8042B9C452F
:1047B00041F8042FF9D8E4E703690A6930B59B1A78
:1047C0000CD19200143014318418114454F8045D53
:1047D00051F8042D954203D005D30123184630BD6E
:1047E000A042F3D3FAE74FF0FF33F7E72DE9F047A4
:1047F0000D460746114628461446FFF7DDFF061E04
:1048000008D131463846FFF784FD0123C0E904365C
:10481000BDE8F087A4BF23462C4638466168A6BF92
:104820001D4600260126FFF774FD4FF0000EC660FE
:104830002B69266904F1140205F1140902EB8607BD
:1048400009EB830800F1140152F804AB59F8045B3A
:104850001FFA8AF37344ACB21B1B2C0CC4EB1A4432
:1048600004EB23449BB24FEA244EC84543EA044478
:10487000944641F8044BE7D8BC4504D351F8043DB5
:1048800083B10661C4E75CF8044BA2B2724413140E
:1048900003EB144392B242EA03424FEA234E41F83B
:1048A000042BE9E7013EE9E7104B0B40A3F15073FD
:1048B000002B02DD0020194670475B421B15132BAD
:1048C0004FF000004FF0000104DC4FF4002242FAE8
:1048D00003F170470122143B1E2BCEBF1346C3F1D8
:1048E0001F0302FA03F31846704700BF0000F07F71
:1048F0002DE9F843076900F1140909EB870757F818
:10490000046CA7F104083046FFF7C7FDC0F120038F
:104910000A280B601E4917DCC14528BF0022C0F1E0
:104920000B0C26FA0CF338BF57F8082C43EA0105A4
:1049300000F1150306FA03F322FA0CF243EA02042B
:1049400020462946BDE8F883C1453ABFA7F10808CB
:1049500057F8082C0022B0F10B0315D09E40C3F18C
:10496000200746F07F5622FA07F1C84546F4401664
:1049700046EA010594BF002158F8041C02FA03F02E
:10498000F94040EA0104DBE746EA01051446D7E7AF
:104990000000F03F2DE9F3411C46DDE908650121E7
:1049A0009046FFF7B6FCC4F31302C4F30A5407465B
:1049B00034BB0192B8F1000227D002A840F8082DBC
:1049C000FFF78AFD0099F0B1019AC0F1200302FAC5
:1049D00003F30B43C2407B610192019B002B14BF88
:1049E00002210121BB613961C4B1A4F23344044402
:1049F0003460C0F135002860384602B0BDE8F0816F
:104A000042F48012D5E77961E7E701A8FFF764FD7A
:104A10000121019B39617B612030E5E7A0F2324042
:104A200007EB810330601869FFF737FDC0EB4110D9
:104A3000E1E72DE9F74F884669468146FFF758FFC1
:104A40008B4606460F46404601A9FFF751FFD9F8AD
:104A50001030D8F810200D46A3EB020CDDE900322F
:104A60009B1A03EB4C13002BD5BF0A463A46C3EB07
:104A7000033302EB035BD8BF02EB03552B46024620
:104A800059463046FBF752FE03B0BDE8F08F0139BE
:104A900010B549111469013102F1140300EB8101D1
:104AA00003EB8404A342024603D300238A4205D3C6
:104AB00010BD53F8042B40F8042BF3E742F8043BF5
:104AC000F4E700F1140200694B11984210B511DBB4
:104AD0000ADD11F01F0107D052F8234024FA01F03B
:104AE00000FA01F18C420BD102EB8303934203D80D
:104AF000002010BD0346F7E753F8041D0029F5D048
:104B00000120F6E738B502FB01F4214600F008F871
:104B1000054618B122460021FEF776FA284638BD30
:104B200070B5CD1C25F0030508350C2D38BF0C25BC
:104B3000002D064601DBA94203D90C233360002077
:104B400070BD00F07FF8214A1468214691B9204CCD
:104B500023681BB9304600F03DF8206029463046F6
:104B600000F038F8431C24D10C233046336000F0A9
:104B70006AF8E4E70B685B1B18D40B2B0FD90B60AA
:104B8000CC18CD50304600F05EF804F10B00231D28
:104B900020F00700C31AD3D05A42E250D0E74B6846
:104BA0008C4216BF636013600C46EBE70C46496805
:104BB000CCE7C41C24F00304A04205D0211A3046DF
:104BC00000F008F80130CFD02560DBE7300200208C
:104BD0003402002038B50023054C05460846236002
:104BE000FCF752FB431C02D1236803B12B6038BD94
:104BF000B002002010B56AB10139841810F8013BE9
:104C000011F8012F934203D1A04201D0002BF5D11E
:104C1000981A10BD1046FCE749B1FF2A8BBF8A23C2
:104C20000A700360012088BF4FF0FF3070470846CC
:104C300070470000024B01461868FFF771BF00BFC4
:104C40000C00002070477047F8B500BFF8BC08BCE6
:104C50009E467047F8B500BFF8BC08BC9E4670473A
:104C60005F00000002030405060708090A0B0C0D8B
:104C70000E0F1010010200000000000000000000F4
:104C800001020304060708090000000001020304F2
:104C90006E6600696E69747900616E00350000000F
:104CA000CEFBFFFFCB03000001000000000000006E
:104CB00034000000CEFBFFFFCB030000010000002A
:104CC0000000000000000000BC89D897B2D29C3CD4
:104CD00033A7A8D523F649393DA7F444FD0FA532E3
:104CE0009D978CCF08BA5B25436FAC64280668118A
:104CF0004300504F534958002E00000000000000B0
:104D00000080E03779C34143176E05B5B5B89346C7
:104D1000F5F93FE9034F384D321D30F94877825A93
:104D20003CBF737FDD4F1575000000000000F03FB1
:104D30000000000000002440000000000000594076
:104D40000000000000408F40000000000088C340C9
:104D500000000000006AF8400000000080842E413E
:104D600000000000D01263410000000084D797418A
:104D70000000000065CDCD41000000205FA0024290
:104D8000000000E876483742000000A2941A6D4205
:104D9000000040E59C30A2420000901EC4BCD642F8
:104DA00000003426F56B0C430080E03779C34143A3
:104DB00000A0D8855734764300C84E676DC1AB4319
:104DC000003D9160E458E143408CB5781DAF154437
:104DD00050EFE2D6E41A4B4492D54D06CFF0804412
:104DE000F64AE1C7022DB544B49DD9794378EA4427
:104DF00005000000190000007D00000000202020B8
:104E0000202020202020282828282820202020207A
:104E1000202020202020202020202020208810104A
:104E200010101010101010101010101010040404A6
:104E30000404040404040410101010101010414164
:104E40004141414101010101010101010101010152
:104E50000101010101010101101010101010424266
:104E60004242424202020202020202020202020222
:104E700002020202020202021010101020000000C2
:104E80000000000000000000000000000000000022
:104E90000000000000000000000000000000000012
:104EA0000000000000000000000000000000000002
:104EB00000000000000000000000000000000000F2
:104EC00000000000000000000000000000000000E2
:104ED00000000000000000000000000000000000D2
:104EE00000000000000000000000000000000000C2
:104EF00000000000000000000000000000000000B2
:044F0000350100086F
:044F0400110100088F
:104F08000024F40010000000010000001000002040
:104F18000000000000000000000000000000000089
:104F28000000000000000000000000000000000079
:104F38000000000000000000000000000000000069
:104F48000000000000000000000000000000000059
:104F58000000000000000000000000000000000049
:104F68000000000000000000000000000000000039
:104F780043000000000000000000000000000000E6
:104F88000000000000000000000000000000000019
:104F980043000000000000000000000000000000C6
:104FA80000000000000000000000000000000000F9
:104FB80043000000000000000000000000000000A6
:104FC80000000000000000000000000000000000D9
:104FD8004300000000000000000000000000000086
:104FE80000000000000000000000000000000000B9
:104FF8004300000000000000000000000000000066
:105008000000000000000000000000000000000098
:105018004300000000000000000000000000000045
:105028000000000000000000000000000000000078
:105038004300000000000000000000000000000025
:105048000000000000000000000000000000000058
:10505800194C0008D942000800000000FC4D000867
:10506800F84C0008F94C0008F94C0008F94C000805
:10507800F94C0008F94C0008F94C0008F94C0008F4
:10508800F94C0008F94C0008FFFFFFFFFFFFFFFF86
:10509800FFFFFFFFFFFF00000100415343494900A4
:1050A80000000000000000000000000000000000F8
:1050B800000000000000000000004153434949007F
:1050C80000000000000000000000000000000000D8
:0C50D800000000000000000000000000CC
:0400000508001301DB
:00000001FF
